:1000000028C0FECFFDCFFCCFFBCFFACFF9CFF8CF82
:10001000F7CFF6CFF5CF49C0F3CF62C0F1CFF0CF25
:10002000EFCFEECFEDCF1027E80364000A00010008
:10003000001000011000010000000000000000009E
:1000400025660000010002003800060004003A00A6
:100050000000F894EE27ECBBF1E0FBBFEBBFE5BF7F
:100060008DE0A2E0BB27ED938A95E9F780E094E06C
:10007000A0E6ED930197E9F7E4E4F0E0859195912E
:10008000009761F0A591B59105901590BF01F00121
:1000900005900D920197E1F7FB01F0CFEFE5EDBF81
:1000A000E4E0EEBFC0E6D1E05FC002D29FD21BB158
:1000B0000CB1E12FEC7189F4E52D5394F0E0E05A96
:1000C000FE4F0083ECE1E51509F455247394ECE14F
:1000D000E71519F47724689420F8099119910FC055
:1000E000E7D1882061F08A94E92D9394F0E0E458F8
:1000F000FE4FE081ECB9ECE1E91509F49924E991AE
:10010000EFBFF991E9911895AA93ECE1E815E9F3AD
:10011000F894882011F45D990DC0E62D6394F0E009
:10012000E458FE4FA881A083ECE1E61509F46624AB
:10013000839402C0E881ECB97894219608954DD259
:1001400053D2FE0134968F0130E0343050F45D9B81
:10015000FECFE32FF0E0E00FF11FE081ECB93F5F4D
:10016000F4CF49D2289608952C97E7E2E883E1E797
:10017000E983E4EFEA83E2E4EB8301E010E04CE1A1
:1001800050E0E0E0E7BBE8BBE4BBE5BBE1BBE2BBC2
:10019000E3BFE2BFEFBDEEBDEDBDECBDE7BDE6BD2B
:1001A000EBBDEABDE9BDE8BDE2BDE5BDE4BDE3BD33
:1001B000E9BFE5BFEBB9E8EDEAB9E6E8E0BDE0E0AC
:1001C000E0BDE3E0E9B9E0E8E8B9E0E0E0BFE6B9C6
:1001D000EDB9E6BF7894E0E4F0E0FA93EA93E7ED56
:1001E000F3EE6AEF72E4F4D184E042D12696E3D1D3
:1001F000A4D1DF01CB01A3DFEECFFFCF5ED1A99168
:10020000B991EE27FF276D91662311F03196FBCF50
:10021000089553D1AA27BB27E991F99105900020B1
:1002200011F01196FBCFFD01089547D1AA816CDF33
:10023000A881B981ED91FD913196FE93EE932396BD
:1002400008953BD12697CED110E0AC85BD85E0E086
:10025000F0E0ED93FC93EA89FB893196EA8BFB8B06
:100260003197E4912E2FE03009F4FCC0E12FE0300B
:1002700031F4253211F411E001C022D1F2C0E13095
:10028000A1F4253211F41CD1EBC012E040E000E0F3
:100290002D3211F401E0E5C02B3211F44BE2E1C044
:1002A000203211F440E2DDC002C0E23039F450E007
:1002B00013E0203311F40068D4C003C0E33009F028
:1002C000D0C0203310F02A3308F007C0AAE05A9FAC
:1002D000502DE22FE0535E0FC4C0E22FE33639F415
:1002E000F6D0F8D0F4D0A481AA93F8D0B9C0E337FF
:1002F00029F4FAD0FBD082DF1E2F07C0E03749F483
:10030000F3D0F4D086DF1E2F086002600F7730E054
:100310002DC0E43611F0E93611F4046002C0E5376F
:1003200029F4E6E2F0E0EBD015E00BC0E83511F47B
:10033000086003C0E83709F093C0E0E3F0E0DFD0E5
:1003400014E002FF11C0D0D0DDD0AB85AA2332F477
:10035000EA85FB8524D1EA87FB874DE2403011F026
:100360001F5F01C00B7F02C0BFD0CCD000FD10C00A
:10037000151770F407FF08C002FF04C00B7F242F7D
:10038000115001C020E301C020E29AD05150F0CFBB
:10039000312F01FF15C0303091F003FF05C0EE8111
:1003A000FF812591ACD005C0AE81BF812D91AE8378
:1003B000BF8386D0503009F051503150ECCF47C048
:1003C00020E3EE81FF8100D1E887F987EE81FF818C
:1003D000329695D0E885F985AA85BB85AE17BF070B
:1003E00050F02F5FA885B985EA85FB85EA1BFB0BDA
:1003F000EA87FB87EFCF2A3328F003FF02C0295F8B
:1004000001C0295D04FD19C0213320F4A885B985F8
:10041000119709F409C0531710F000FF01C011C073
:1004200020E207FF0AC020E3006102FF06C00B7F45
:100430004A9354D0503009F0515042D0503009F016
:1004400051503150A885B985129708F0B9CF00FFF7
:1004500007C0503029F05150E0E2EA933FD0F9CF85
:1004600010E0F9CEAC85BD85ABD0C3D064960895BD
:10047000FF92F82E2697BAD0DE0114968CD08D010B
:10048000E0E0EC83ED83EE83EF83DE01189683D00A
:1004900097D0FA93EA931A930A93E5E1F1E0FA937D
:1004A000EA93DE011896CDDEA8D02896FF90089535
:1004B000EA93FA93EFB7EA930895BA93AA9308954B
:1004C0002A93AD85BE85EF85F88909950895E88959
:1004D000F98908953497E88BF98B0895AD85BE8529
:1004E000EF85F88909950895F2DFF4CFA889B989D5
:1004F000149666D0EE83FF83AE81BF810895EE83AC
:10050000FF830895A889B98914965AD0EA87FB8792
:10051000089550E8572711F45F932BC05F3F31F0E7
:10052000660F000C57956795752F08955F9300200F
:100530000AF02BC024C0689401C0E8943097604052
:100540007040B1F0002426F0772312F400942BD0F1
:10055000172E7EE1112032F07A95EE0FFF1F661FF5
:10056000111CF9CFEF2FF62F612D5F93D2DF5F9132
:100570000895EE27FF27662777275F910895EFEF0D
:10058000FFEF6FE77FEF5F910895EFEFFFEF6FE70A
:100590007FE75F9108950024AF0DB01D0895F19598
:1005A000E195F0400895F09560957095E195FF4FC5
:1005B0006F4F7F4F08956F2F660F660B762F08954C
:1005C000ED91FC91119708950590F491E02D089517
:1005D0007A936A93FA93EA9308959A938A93BA93D3
:1005E000AA9308955A934A933A932A931A930A9393
:1005F00008955D814C813B812A811981088108958C
:00000001FF
