:0E00000028C0FECFFDCFFCCFFBCFFACFF9CF4B
:10000E00F8CFF7CFF6CFF5CF49C0F3CF75C0F1CF0C
:10001E00F0CFEFCFEECFEDCF1027E80364000A004C
:10002E00010000100001100001000000000000009F
:10003E0000002573000001000200380006000400D5
:10004E003A000000F894EE27ECBBF1E0FBBFEBBFEB
:10005E00E5BF8DE0A2E0BB27ED938A95E9F780E03E
:10006E0094E0A0E6ED930197E9F7E4E4F0E08591E2
:10007E009591009761F0A591B59105901590BF01EE
:10008E00F00105900D920197E1F7FB01F0CFEFE53E
:10009E00EDBFE4E0EEBFC0E6D1E042C09CD0A5D0FB
:1000AE001BB10CB1E12FEC7189F4E52D5394F0E006
:1000BE00E05AFE4F0083ECE1E51509F455247394E4
:1000CE00ECE1E71519F47724689420F80991199159
:1000DE0022C01A937720F1F3E42D4394F0E0E05A16
:1000EE00FE4F1081ECE1E41509F44424F8947A945F
:1000FE007894E12F199108956ED0882061F08A943A
:10010E00E92D9394F0E0E458FE4FE081ECB9ECE178
:10011E00E91509F49924E991EFBFF991E991189540
:10012E002A9701E010E04CE150E021E0E0E0E7BB6F
:10013E00E8BBE4BBE5BBE1BBE2BBE3BFE2BFEFBDA7
:10014E00EEBDEDBDECBDE7BDE6BDEBBDEABDE9BD67
:10015E00E8BDE2BDE5BDE4BDE3BDE9BFE5BFEBB97A
:10016E00E8EDEAB9E6E8E0BDE0E0E0BDE3E0E9B9DC
:10017E00E0E8E8B9E0E0E0BFE6B9EDB9E6BF7894B3
:10018E00A8DF3E2F3F3F29F50C31E0E01E07BCF4FF
:10019E00F801DE011A96EA0FFB1FFF93EF9399DF2A
:1001AE00AF91BF91EC930F5F1F4F1AD0E3E0F0E0D9
:1001BE00E017F10719F414D0EC91ECB9E5CF00E09B
:1001CE0010E0EB85EE83EC85EF83ED85E887EE8519
:1001DE00E987D6CFFFCFEA93FA93EFB7EA93089564
:1001EE00DE011A96A00FB11F08951A930A9308956F
:00000001FF
