:0400000026C0FECF49
:10000400FDCFFCCFFBCFFACFF9CFF8CFF7CFF6CFA8
:10001400F5CF47C0F3CF73C0F1CFF0CFEFCFEECF22
:10002400EDCF1027E80364000A000100001000016E
:1000340010000100000000000000000001000200A8
:100044003800060004003A000000F894EE27ECBBE8
:10005400F1E0FBBFEBBFE5BF8DE0A2E0BB27ED9372
:100064008A95E9F780E094E0A0E6ED930197E9F73B
:10007400E0E4F0E085919591009761F0A591B59148
:1000840005901590BF01F00105900D920197E1F7DD
:10009400FB01F0CFEFE5EDBFE4E0EEBFC0E6D1E059
:1000A4005DC08ED092D01BB10CB1E12FEC7189F4FC
:1000B400E52D5394F0E0E05AFE4F0083ECE1E515A2
:1000C40009F455247394ECE1E71519F47724689442
:1000D40020F80991199122C01A937720F1F3E42DA5
:1000E4004394F0E0E05AFE4F1081ECE1E41509F48A
:1000F4004424F8947A947894E12F1991089560D067
:10010400882061F08A94E92D9394F0E0E458FE4F3E
:10011400E081ECB9ECE1E91509F49924E991EFBF28
:10012400F991E9911895AA93ECE1E815E9F3F894AB
:10013400882011F45D990DC0E62D6394F0E0E45835
:10014400FE4FA881A083ECE1E61509F466248394AC
:1001540002C0E881ECB9789421960895E0E0E7BB09
:10016400E8BBE4BBE5BBE1BBE2BBE3BFE2BFEFBD81
:10017400EEBDEDBDECBDE7BDE6BDEBBDEABDE9BD41
:10018400E8BDE2BDE5BDE4BDE3BDE9BFE5BFEBB954
:10019400E8EDEAB9E6E8E0BDE0E0E0BDE3E3E9B9B3
:1001A400E0E8E8B9E0E0E0BFE6B9EDB9E6BF78948D
:1001B40093DFAE2FB8DF90DFAE2FB5DFF9CFFFCFDF
:1001C400EA93FA93EFB7EA9308951A930A9308957A
:00000001FF
