:0E00000028C0FECFFDCFFCCFFBCFFACFF9CF4B
:10000E00F8CFF7CFF6CFF5CF49C0F3CF75C0F1CF0C
:10001E00F0CFEFCFEECFEDCF1027E80364000A004C
:10002E00010000100001100001000000000000009F
:10003E0000002573000001000200380006000400D5
:10004E003A000000F894EE27ECBBF1E0FBBFEBBFEB
:10005E00E5BF8DE0A2E0BB27ED938A95E9F780E03E
:10006E0094E0A0E6ED930197E9F7E4E4F0E08591E2
:10007E009591009761F0A591B59105901590BF01EE
:10008E00F00105900D920197E1F7FB01F0CFEFE53E
:10009E00EDBFE4E0EEBFC0E6D1E05DC028D276D27F
:1000AE001BB10CB1E12FEC7189F4E52D5394F0E006
:1000BE00E05AFE4F0083ECE1E51509F455247394E4
:1000CE00ECE1E71519F47724689420F80991199159
:1000DE0022C01A937720F1F3E42D4394F0E0E05A16
:1000EE00FE4F1081ECE1E41509F44424F8947A945F
:1000FE007894E12F19910895FAD1882061F08A94AD
:10010E00E92D9394F0E0E458FE4FE081ECB9ECE178
:10011E00E91509F49924E991EFBFF991E991189540
:10012E00AA93ECE1E815E9F3F894882011F45D99AF
:10013E000DC0E62D6394F0E0E458FE4FA881A08335
:10014E00ECE1E61509F46624839402C0E881ECB96B
:10015E00789421960895289701E010E04CE150E044
:10016E0021E0E0E0E7BBE8BBE4BBE5BBE1BBE2BB03
:10017E00E3BFE2BFEFBDEEBDEDBDECBDE7BDE6BD3D
:10018E00EBBDEABDE9BDE8BDE2BDE5BDE4BDE3BD45
:10019E00E9BFE5BFEBB9E8EDEAB9E6E8E0BDE0E0BE
:1001AE00E0BDE3E0E9B9E0E8E8B9E0E0E0BFE6B9D8
:1001BE00EDB9E6BF78948DDF3E2F3F3FA1F40C31B1
:1001CE00E0E01E0774F4F801DE011896EA0FFB1F3B
:1001DE00FF93EF937EDFAF91BF91EC930F5F1F4FB5
:1001EE00EECF00E010E088D1DE0192961AD084D1D5
:1001FE00DE01919616D080D1DE01909612D07CD180
:10020E00DE015F960ED0E0E4F0E0FA93EA93FE0191
:10021E00369666277727B1D184E049D12696CBCF83
:10022E00FFCF6FD1E991F991A991B991CD0161916A
:10023E006D936623E1F7FC01089563D1A991B991FD
:10024E00EE27FF276D91662311F03196FBCF0895AF
:10025E0058D1AA27BB27E991F9910590002011F0FA
:10026E001196FBCFFD0108954CD1AA8159DFA881CB
:10027E00B981ED91FD913196FE93EE9323960895FB
:10028E0040D126977FD110E0AC85BD85E0E0F0E04F
:10029E00ED93FC93EA89FB893196EA8BFB8B3197C0
:1002AE00E4912E2FE03009F4FCC0E12FE03031F460
:1002BE00253211F411E001C027D1F2C0E130A1F4D2
:1002CE00253211F421D1EBC012E040E000E02D32D6
:1002DE0011F401E0E5C02B3211F44BE2E1C0203203
:1002EE0011F440E2DDC002C0E23039F450E013E018
:1002FE00203311F40068D4C003C0E33009F0D0C03D
:10030E00203310F02A3308F007C0AAE05A9F502D70
:10031E00E22FE0535E0FC4C0E22FE33639F4FBD078
:10032E00FDD0F9D0A481AA93FDD0B9C0E33729F44A
:10033E00FFD000D182DF1E2F07C0E03749F4F8D07E
:10034E00F9D086DF1E2F086002600F7730E02DC0D7
:10035E00E43611F0E93611F4046002C0E53729F4F1
:10036E00E6E2F0E0F0D015E00BC0E83511F40860DD
:10037E0003C0E83709F093C0E0E3F0E0E4D014E006
:10038E0002FF11C0D5D0E2D0AB85AA2332F4EA85A4
:10039E00FB85E7D0EA87FB874DE2403011F01F5F07
:1003AE0001C00B7F02C0C4D0D1D000FD10C0151704
:1003BE0070F407FF08C002FF04C00B7F242F1150FA
:1003CE0001C020E301C020E29FD05150F0CF312F69
:1003DE0001FF15C0303091F003FF05C0EE81FF81A3
:1003EE002591B1D005C0AE81BF812D91AE83BF8363
:1003FE008BD0503009F051503150ECCF47C020E334
:10040E00EE81FF81B6D0E887F987EE81FF813296C3
:10041E009AD0E885F985AA85BB85AE17BF0750F03F
:10042E002F5FA885B985EA85FB85EA1BFB0BEA875A
:10043E00FB87EFCF2A3328F003FF02C0295F01C0EC
:10044E00295D04FD19C0213320F4A885B9851197C3
:10045E0009F409C0531710F000FF01C011C020E2CB
:10046E0007FF0AC020E3006102FF06C00B7F4A931C
:10047E0059D0503009F0515047D0503009F05150FA
:10048E003150A885B985129708F0B9CF00FF07C083
:10049E00503029F05150E0E2EA9344D0F9CF10E009
:1004AE00F9CEAC85BD8561D074D064960895FF9267
:1004BE00F82E26976BD0DE0114964FD08D01E0E01A
:1004CE00EC83ED83EE83EF83DE01189646D04DD09C
:1004DE00FA93EA931A930A93EBE3F1E0FA93EA9311
:1004EE00DE011896CDDE59D02896FF900895EA9336
:1004FE00FA93EFB7EA930895FE013496FA93EA93CE
:10050E000895BA93AA9308952A93AD85BE85EF8573
:10051E00F88909950895E889F98908953497E88B43
:10052E00F98B0895AD85BE85EF85F88909950895F7
:10053E00F2DFF4CFA889B989149617D0EE83FF8322
:10054E00AE81BF810895EE83FF830895A889B9898E
:10055E0014960BD0EA87FB8708950024AF0DB01DCB
:10056E000895F195E195F0400895ED91FC91119764
:10057E0008950590F491E02D08957A936A93FA9375
:10058E00EA9308955A934A933A932A931A930A93A5
:10059E0008955D814C813B812A81198108810895DE
:00000001FF
