:1000000031C0FECFFDCFFCCFFBCFFACFF9CFF8CF79
:10001000F7CFF6CFF5CF52C0F3CF7EC0F1CFF0CF00
:10002000EFCFEECFEDCF1027E80364000A00010008
:10003000001000011000010000000000000000009E
:100040002573000001002D4E414E00494E46000030
:10005000010002003800060004003A000100980187
:1000600044000000F894EE27ECBBF1E0FBBFEBBFCF
:10007000E5BF8DE0A2E0BB27ED938A95E9F780E02C
:1000800094E0A0E6ED930197E9F7E0E5F0E08591D3
:100090009591009761F0A591B59105901590BF01DC
:1000A000F00105900D920197E1F7FB01F0CFEFE52C
:1000B000EDBFE4E0EEBFC0E6D1E057C011D1C0D142
:1000C0001BB10CB1E12FEC7189F4E52D5394F0E0F4
:1000D000E05AFE4F0083ECE1E51509F455247394D2
:1000E000ECE1E71519F47724689420F80991199147
:1000F00022C01A937720F1F3E42D4394F0E0E05A04
:10010000FE4F1081ECE1E41509F44424F8947A944C
:100110007894E12F19910895E3D0882061F08A94B2
:10012000E92D9394F0E0E458FE4FE081ECB9ECE166
:10013000E91509F49924E991EFBFF991E99118952E
:1001400078D17CD1FE0134968F0130E0343050F408
:100150005D9BFECFE32FF0E0E00FF11FE081ECB9F3
:100160003F5FF4CF70D1289608952E9700E010E0FD
:100170004CE150E0E0E0E7BBE8BBE4BBE5BBE1BB42
:10018000E2BBE3BFE2BFEFBDEEBDEDBDECBDE7BD41
:10019000E6BDEBBDEABDE9BDE8BDE2BDE5BDE4BD40
:1001A000E3BDE9BFE5BFEBB9E8EDEAB9E6E8E0BDDC
:1001B000E0E0E0BDE3E0E9B9E0E8E8B9E0E0E0BFB5
:1001C000E6B9EDB9E6BF789494DF3E2F3F3FA1F545
:1001D0000C31E0E01E0794F4F801DE011E96EA0FF0
:1001E000FB1FFF93EF9385DFAF91BF91EC930F5F00
:1001F0001F4FDE011E96A00FB11FEACF00E010E0F6
:10020000EBA1EA87ECA1EB87EDA1EC87EEA1ED87EE
:10021000CC83DD83EC81FD81FA93EA93FE013C9669
:10022000FA93EA93A4E0B0E009D05FD049D0DF01AF
:10023000CB0186DFE0E0F8D0C7CFFFCFBA93AA9317
:1002400099818881009641F0BD81AC81FB81EA8172
:1002500061916D930197E1F7FD81EC8126960895F8
:10026000E8D07B816A81F981E88177FB770F67FDB0
:100270007160972F9E5781F078F0983190F4AA27FB
:10028000BB27882708948795B795A7959A95D1F7A6
:10029000EA23FB23682305C0E8947727EE27FF278E
:1002A00066276F77769508F4606877F9A991B99118
:1002B00089919991EA17FB076807790797FB0895D9
:1002C000B8D013D0CDDFABD011F411D007C0EEF70A
:1002D0000ED0A0E0B0E080E89FE345D024960895DA
:1002E000EA93FA93EFB7EA93089594D008958DD0E6
:1002F000089550E8572711F45F9375C05F3F31F0C0
:10030000660F000C57956795752F08955F93002031
:100310000AF075C06EC050E8192E1522880F991F7B
:100320009527550F879550E8072E0522660F771FF2
:100330007527550F679508954F93AF01FD01DA01B9
:10034000AB01BC01CA01402D012C142E4F91089520
:10035000EA0FFB1F681F0895E095F0956095EF5F29
:10036000FF4F6F4F08955F93D6DF903849F150E803
:100370001526703821F1572F591B2BF112F4DCDFB1
:10038000FACF583118F0AA27BB278827583028F011
:10039000AB2FB82F88275850F9CF552329F08695D1
:1003A000B795A7955A95D9F7502D512572F0D0DF02
:1003B00038F46795F795E795739513F420C0BCDF83
:1003C00098DF5F910895D8F7FBCFEA1BFB0B680B12
:1003D00051F010F40094C0DF662392F3EE0FFF1F7C
:1003E000661F7A95CBF7EE27FF27662777275F9161
:1003F0000895EFEFFFEF6FE77FEF5F910895EFEF65
:10040000FFEF6FE77FE75F910895E881F9816A81E7
:100410007B810895A881B9818A819B810895E883B1
:10042000F9836A837B830895E883E983EA83EB8316
:1004300008959A938A93BA93AA9308953A932A9324
:100440001A930A9308953B812A811981088108959E
:00000001FF
