:0600000025C0FECFFDCF7C
:10000600FCCFFBCFFACFF9CFF8CFF7CFF6CFF5CFAE
:1000160046C0F3CFF2CFF1CFF0CFEFCFEECFEDCF9B
:100026001027E80364000A00010000100001100018
:10003600010000000000000001000200380004007A
:1000460004003A000000F894EE27ECBBF1E0FBBF99
:10005600EBBFE5BF8DE0A2E0BB27ED938A95E9F7FC
:1000660080E094E0A0E6ED930197E9F7EEE3F0E097
:1000760085919591009761F0A591B59105901590A0
:10008600BF01F00105900D920197E1F7FB01F0CF5A
:10009600EFE5EDBFE4E0EEBFC0E6D1E022C0EA93B3
:1000A600FA93EFB7EA9349D01BB10CB1E12FEC718B
:1000B60089F4E52D5394F0E0E05AFE4F0083ECE11D
:1000C600E51509F455247394ECE1E71519F4772442
:1000D600689420F809911991E991EFBFF991E99196
:1000E6001895E0E0E7BBE8BBE4BBE5BBE1BBE2BBE0
:1000F600E3BFE2BFEFBDEEBDEDBDECBDE7BDE6BDC6
:10010600EBBDEABDE9BDE8BDE2BDE5BDE4BDE3BDCD
:10011600E9BFE5BFEBB9E0E9EAB9E6E8E0BDE0E052
:10012600E0BDE3E3E9B9E0E8E8B9E0E0E0BFE6B95D
:10013600EDB9E6BF7894FFCFFFCF1A930A930895DF
:00000001FF
