:0E0000004EC0FECFFDCFFCCFFBCFFACFF9CF25
:10000E00F8CFF7CFF6CFF5CFF4CFF3CFF2CFF1CFC6
:10001E00F0CFEFCFEECFEDCF1027E80364000A004C
:10002E00010000100001100001007B0041746D659D
:10003E006761382055415254207265616479210000
:10004E004675636B206F6666007375636B004C4379
:10005E0044203136783034004775726F73746162A4
:10006E006C6500706C6174666F726D0074656D7096
:10007E00203D20253035640A000080C001000800B4
:10008E003800130060013A00020088018800000069
:10009E00F894EE27ECBBF1E0FBBFEBBFE5BF8DE0C4
:1000AE00A2E0BB27ED938A95E9F780E094E0A0E605
:1000BE00ED930197E9F7EAE8F0E0859195910097C5
:1000CE0061F0A591B59105901590BF01F0010590D5
:1000DE000D920197E1F7FB01F0CFEFE5EDBFE4E004
:1000EE00EEBFC0E6D1E011C0ABD2AEE4B0E003C0CB
:1000FE00A7D2A7E5B0E03FD20895EAB1E861EAB928
:10010E00E0E0E0BDE3E3E9B90895F7DF44245524C8
:10011E00E3E1F0E04E165F0664F45D9BFECFA0E6D1
:10012E00B1E0A40DB51DEC91ECB9F20131962F01A1
:10013E00EFCFA0E142D2EDD187D2A0E0DCD1ACE589
:10014E00B0E019D281D2A1E0D6D1A6E6B0E013D2AA
:10015E007BD2A2E0D0D1A1E7B0E00DD25F9B12C05E
:10016E009CB0E4E7F1E073D2EAE7F0E070D2E82D5C
:10017E00FF2766277727B9D284E059D12896A4E7BE
:10018E00B1E0EBD1E92DF0E0E133A0E0FA0711F494
:10019E00AFDF05C0E033A0E0FA0709F4A5DFDECF3C
:1001AE00FFCF58D2ABD259D2129697D23097F1F0E8
:1001BE0054D256D28F01309761F00230E0E01E0724
:1001CE0070F0F80131978F01AA81BB811496ED93DF
:1001DE00FC9343D2129647D23197AC81A0833DD285
:1001EE007CD2FF2312F039D23ED205C036D2EFEFC9
:1001FE00FFEFED93FC9389D2259608952BD2269787
:10020E0079D210E0AC85BD85E0E0F0E0ED93FC9393
:10021E00EA89FB893196EA8BFB8B3197E4912E2F7D
:10022E00E03009F4FEC0E12FE03031F4253211F454
:10023E0011E001C01ED2F4C0E130A1F4253211F458
:10024E0018D2EDC012E040E000E02D3211F401E0D2
:10025E00E7C02B3211F44BE2E3C0203211F440E23E
:10026E00DFC002C0E23039F450E013E0203311F465
:10027E000068D6C003C0E33009F0D2C0203310F0BE
:10028E002A3308F007C0AAE05A9F502DE22FE05300
:10029E005E0FC6C0E22FE33639F4F2D1F4D1F0D1BD
:1002AE00A481AA93F4D1BBC0E33731F4F6D1F7D1D0
:1002BE00F9D1AFD11E2F08C0E03751F4EED1EFD1F6
:1002CE00F1D1B2D11E2F086002600F7730E02EC040
:1002DE00E43611F0E93611F4046002C0E53729F472
:1002EE00E6E2F0E0E4D115E00BC0E83511F4086069
:1002FE0003C0E83709F093C0E0E3F0E0D8D114E092
:10030E0002FF11C0CAD1CBD1D5D1AB85AA232AF415
:10031E00EA85FB85DED1CED14DE2403011F01F5F74
:10032E0001C00B7F03C0B9D1BAD1C4D100FD10C03A
:10033E00151770F407FF08C002FF04C00B7F242FAF
:10034E00115001C020E301C020E293D15150F0CFF3
:10035E00312F01FF15C0303091F003FF05C0EE8143
:10036E00FF812591A4D105C0AE81BF812D91AE83B1
:10037E00BF837FD1503009F051503150ECCF46C081
:10038E0020E3EE81FF81ADD1E887F987EE81FF8111
:10039E0032968DD1E885F985AA85BB85AE17BF0744
:1003AE0048F02F5FA885B985EA85FB85EA1BFB0B14
:1003BE0081D1F0CF2A3328F003FF02C0295F01C09C
:1003CE00295D04FD19C0213320F4A885B985119744
:1003DE0009F409C0531710F000FF01C011C020E24C
:1003EE0007FF0AC020E3006102FF06C00B7F4A939D
:1003FE004ED1503009F051503CD1503009F051508F
:10040E003150A885B985129708F0BACF00FF07C002
:10041E00503029F05150E0E2EA9339D1F9CF10E093
:10042E00F7CEAC85BD8559D16CD164960895FF92F7
:10043E00F82E269761D141D1309719F4EFEFFFEFE7
:10044E001CC0DE01169641D18D0137D130D1E0E0CE
:10045E00E887E987DE011A9638D13FD1F8D01A9392
:10046E000A93E8EDF0E0F3D0DE011A96C7DE9F01A5
:10047E00AE81BF81E0E0EC93F90145D12A96FF9061
:10048E000895FFE0FA95F1F70895A7B3AF70A7BBF3
:10049E00C19AC098F6DFC29AF4DFA6B3C298F1DF14
:1004AE00C29AEFDFC298A7FDF5CF0895A07FAB2BC0
:1004BE00A8BBC29AE6DFC298E4DF0895AA93C1985A
:1004CE00A7B3A76FA7BBB8B3BF70A881EFDFA88192
:1004DE00A295ECDFC19A9BC0C29AD3DFE6B3C29855
:1004EE00D0DFE07F0895CDDFF7DFAE2FF5DFC198C7
:1004FE00E295EA2B0895AA93C8DFE881F0E0E85769
:10050E00FE4FE081A981AE0FD9DFB980A880229677
:10051E000895BBDFA2E0D2DFB8DFACE0CFDFB5DFFE
:10052E00A1E0CCDFE0E0AE2EBE2E0895AA93EF93AD
:10053E00FF93A8816894AA3019F0E894BD1428F0AE
:10054E00A39482D0AA2DD7DF2EF0B3949EDFC09A4B
:10055E00A881B4DFFF91EF915AC07CD01A93A98184
:10056E00BA81ED91A983BA831E2FE03019F0A12F25
:10057E00DDDFF5CF0FC06ED01A93E981FA81319687
:10058E00E983FA833197E4911E2FE03019F0A12F01
:10059E00CDDFF3CF188123960895AA27BB27119795
:1005AE00F1F70895AA93C198A7B3A76FA7BBB8B3E5
:1005BE00BF70A8817BDFC19A2AC0AA93C298C09847
:1005CE00D880E881E058E0938A01E881E054E09316
:1005DE008B0178D077D076D0E0DFA0E2E3DFDDDFED
:1005EE00A8E26CDFDADFA4E069DFD7DFA5E866DF1B
:1005FE00D4DFA7B3AF70A7BBC19A75DFE53011F09A
:10060E00E0E005C042DFA6E059DF83DFE1E021969E
:10061E00089520D0A991B991EE27FF276D916623F9
:10062E0011F03196FBCF089515D0AA27BB27E9917B
:10063E00F9910590002011F01196FBCFFD01089560
:10064E00E0E0EA93A3E057CFE0E0EA930895FA934F
:10065E00EA930895BA93AA930895AA81BB81089547
:10066E0014963BD00895ED91FD913196FE93EE9345
:10067E0008952A93AD85BE85EF85F889099508956D
:10068E00E889F98908953497E88BF98B0895AD853B
:10069E00BE85EF85F88909950895F2DFF4CFA88914
:1006AE00B989DECFEE83FF83AE81BF810895EE83DD
:1006BE00FF830895EA87FB870895DE011C9605D017
:1006CE000CD008956ADFA0E36DCF0024AF0DB01DEE
:1006DE000895F195E195F0400895ED91FC911197F3
:1006EE0008950590F491E02D08957A936A93FA9304
:1006FE00EA9308955A934A933A932A931A930A9334
:10070E0008955D814C813B812A811981088108956C
:00000001FF
