:100000002EC0FECFFDCFFCCFFBCFFACFF9CFF8CF7C
:10001000F7CFF6CFF5CF4FC0F3CF68C0F1CFF0CF19
:10002000EFCFEECFEDCF1027E80364000A00010008
:10003000001000011000010000000000000000009E
:100040002063656C6F653D0080C0010002003800D0
:10005000060004003A000200980148000000F894ED
:10006000EE27ECBBF1E0FBBFEBBFE5BF8DE0A2E00C
:10007000BB27ED938A95E9F780E094E0A0E6ED9345
:100080000197E9F7EAE4F0E085919591009761F036
:10009000A591B59105901590BF01F00105900D92C5
:1000A0000197E1F7FB01F0CFEFE5EDBFE4E0EEBF34
:1000B000C0E6D1E02FC0FBD018D11BB10CB1E12FAD
:1000C000EC7189F4E52D5394F0E0E05AFE4F008383
:1000D000ECE1E51509F455247394ECE1E71519F406
:1000E0007724689420F8099119910FC0E0D08820F6
:1000F00061F08A94E92D9394F0E0E458FE4FE0819A
:10010000ECB9ECE1E91509F49924E991EFBFF99113
:10011000E9911895E0E0E7BBE8BBE4BBE5BBE1BBD8
:10012000E2BBE3BFE2BFEFBDEEBDEDBDECBDE7BDA1
:10013000E6BDEBBDEABDE9BDE8BDE2BDE5BDE4BDA0
:10014000E3BDE9BFE5BFEBB9E8EDEAB9E6E8E0BD3C
:10015000E0E0E0BDE3E0E9B9E0E8E8B9E0E0E0BF15
:10016000E6B9EDB9E6BFA0E177D07894E0E0EA9394
:10017000A1E033D0A0E4B0E05CD0A8EEB3E0ABD017
:10018000F5CFFFCFAA93E881E07111F0AB9A01C0DF
:10019000AB98E881E07211F0AC9A01C0AC98E881AC
:1001A000E07411F0AD9A01C0AD98E881E07811F0EB
:1001B000AE9A01C0AE9880D0AA9A7ED0AA987CD080
:1001C00074C0AA93A881DEDFE881E295E883A88164
:1001D000D9DF85E88A95F1F768C0AA93E881F0E055
:1001E000E856FE4FE081A981AE0FEBDFB980A88011
:1001F00022960895A2E064D0ACE0E3DFA1E060D0F5
:10020000E0E0AE2EBE2E0895AA93A881AA3011F088
:10021000BD1448F0E0E0EA93A394AA2DDEDFA881A4
:10022000AA3009F442C0B394A89AA881CADFA8985A
:100230003CC0BA93AA931A93E981FA813196E98373
:10024000FA833197E4911E2FE03019F0A12FDCDF03
:10025000F3CF188123960895AA93A39AA49AA59AF6
:10026000A69AA29AA09AA19AAA98A898A998D88082
:10027000E881E058E0939A01E881E054E0939B0123
:10028000A4E1B0E028D020D01FD01ED0A0E27ADFB9
:1002900088EC90E00197F1F7A8E293DFA4E091DF0A
:1002A000A5E88FDFA6E08DDFA5DF21960895EA930C
:1002B000FA93EFB7EA9308958DE08A95F1F70895E0
:1002C00080DFA3E0B0E007C0A0E35CDF88EC90E053
:1002D0000197F1F70895109639F080ED97E00197B6
:1002E000F1F7A8951197C9F708951A930A930895FD
:00000001FF
